:020000040800F2
:10000000E004002009010008531900087F170008C8
:1000100051190008C5010008991E000800000000E1
:10002000000000000000000000000000F9190008B6
:10003000C70100080000000075190008FB1900083E
:100040002301000823010008230100082301000800
:1000500023010008230100082301000823010008F0
:1000600023010008230100082301000823010008E0
:1000700023010008230100082301000823010008D0
:1000800023010008230100082301000823010008C0
:1000900023010008230100082301000823010008B0
:1000A00000000000230100082301000823010008CC
:1000B000D91A0008230100082301000823010008C1
:1000C0002301000823010008230100082301000880
:1000D0002301000823010008230100085D1E000819
:1000E0002301000823010008230100082301000860
:1000F00023010008DFF80CD000F018F80048004792
:10010000BD220008E004002006488047064800475A
:10011000FEE7FEE7FEE7FEE7FEE7FEE7FEE7FEE7B7
:10012000FEE7FEE7891A0008F5000008064C074DB7
:1001300006E0E06840F0010394E8070098471034B7
:10014000AC42F6D3FFF7DAFF8C2D0008AC2D000887
:10015000F8B500260446009600680168C9434906C0
:100160002AD5816841F00101816014481449006872
:10017000B0FBF1F000EB400000E0401E00900028D2
:10018000FBD100F0CBFA054611E000BF00F0C6FA43
:10019000401B02280BD9E06C40F01000E064206D99
:1001A00040F00100206584F848600120F8BD206817
:1001B0000068C0434006E9D40020F8BD10000020CC
:1001C00040420F00FEE77047F8B50024009490F815
:1001D00048202546012A12D0012280F848204A688A
:1001E0001F23072A0DD20668376C521E02EB8202CB
:1001F00093409F430B6893401F43376435E00220D0
:10020000F8BD0D2A0BD20768FE6BD21F02EB8202EB
:1002100093409E430B6893401E43FE6325E0132AE0
:100220000BD20668B76B0D3A02EB820293409F43F4
:100230000B6893401F43B76317E00668192A0AD278
:10024000776B133A02EB820293409F430B68934013
:100250001F43776309E0376B193A02EB8202934040
:100260009F430B6893401F4337630A6807230A2A9A
:100270000AD20668776902EB420293409F438B687B
:1002800093401F4377611CE0142A0BD207683E6934
:100290000A3A02EB420293409E438B6893401E430E
:1002A0003E610EE01A2A0BD80768FE68143A02EB8A
:1002B000420293409E438B6893401E43FE6000E0E1
:1002C00000BF0A68102A01D0112A17D10D4A1368FD
:1002D0001B0213D4136843F4000313600968102948
:1002E0000CD10949094A0968B1FBF2F101EB81011E
:1002F000490000E0491E00910029FBD180F84850D8
:100300002046F8BD042701401000002040420F00A5
:100310000068806D70470000F8B504004FF00005DC
:1003200003D0E06C002610B110E00120F8BD266576
:100330005B4884F84860016841F001010160006891
:1003400000F001000090204600F0B4F8E06CC00618
:1003500078D4E06C20F4885040F00200E06451480A
:100360000168626821F44031114301606169E0680D
:100370004FF40073084393FAA3F3E26BB3FA83F3E9
:10038000216A9A4011430843022191FAA1F1626A5D
:10039000B1FA81F102FA01F10843616B102902D030
:1003A000A36B19430843236819684FF48077C94346
:1003B000490629D5A169D4F81CC00843A168D4F81E
:1003C00010E041EA0C01BE450CD0BEF1010F09D08E
:1003D0004FF0000C41EA0C01D4F82CC0BCF1010F25
:1003E00002D00AE0BC46F5E76AB3E26C42F02002B4
:1003F000E264226D42F0010222655A68DFF8A8C06B
:1004000002EA0C020A435A6021688A68274B1A40A4
:1004100002438A602169B94224D0012922D021688F
:100420000A6B22F0F8720A6321688968204A114039
:10043000814227D12665E06C20F0020040F00100E7
:10044000E0642AE028E0FFE74FF4604C226B9CFA5E
:10045000ACFCBCFA8CFC521E02FA0CF20A4342F4C9
:100460000061CAE721680A6B4FF0F87722F0F87351
:10047000A26A97FAA7F7B7FA87F7521EBA40134352
:100480000B63D1E7E06C20F0020040F01000E06464
:10049000206D40F00100206501252846F8BD0000D0
:1004A0002038024004270140FF16FCFC8DF1FFC0FC
:1004B000FEFF80BF00B500680C4987B0884213D1A9
:1004C0000B48016841F4007101600068694600F45E
:1004D000007005904FF440400090032001900020F0
:1004E0000290044800F04EF807B000BD002401401F
:1004F000203802400004024010B5044690F848003D
:10050000012822D0012084F848002046FFF720FE71
:1005100000281BD1E16C40F20162914341F48071EB
:10052000E16421684A68520505D5E26C22F4005264
:1005300042F48052E264E26CD3044FF0000206D52C
:10054000236D23F00603236502E0022010BD22651F
:1005500084F848206FF022020A6021688A6812F04D
:10056000405FF3D18A6842F080428A6010BD31B5A5
:1005700000F0D4F8044600F0D1F80099001B88423E
:10058000F9D338BD2DE9F84FDFF864B100234FF0FF
:10059000010C4FF0030A4FF00F090BF1040EA0E01D
:1005A0000CFA03F6324072D04C68022C01D0122CA7
:1005B0000ED1DC0800EB8408D8F820405D07EF0E70
:1005C00009FA07F5AC430D69BD402543C8F8205032
:1005D00007685D0091F804800AFA05F408F0030842
:1005E000A74308FA05F848EA0708C0F800804F68F2
:1005F000012F05D0022F03D0112F01D0122F11D1BE
:100600008768D1F80C80A74308FA05F848EA07087C
:10061000C0F808804768B7430E79C6F300169E40BD
:100620003E434660C668A6438C68AC403443C46011
:100630004C68E40054D52F4C256845F00105256031
:10064000246823F0030504F0010400942A4C254497
:10065000AF689C07240F09FA04F6B743274EB0424F
:1006600001D1002615E0264EB04201D1012610E04E
:10067000244EB04201D102260BE0234EB04201D1FC
:10068000032606E0214EB04202D1042601E027E015
:100690000526A6403E43AE60DBF800405D464E684E
:1006A0009443F60300D514432C60DEF800407546F1
:1006B0004E689443B60300D514432C600C4D0835A6
:1006C0002C684E689443F60200D514432C60084D04
:1006D0000C352C684E689443B60200D514432C6048
:1006E0005B1C0A6832FA03F47FF45AAFBDE8F88F56
:1006F0000004014020380240000001400000024098
:100700000004024000080240000C024000100240B9
:100710000AB1816170470904FBE7000001480068E5
:10072000704700000C00002002480168491C01606D
:10073000704700000C00002010B5032000F090F876
:10074000002000F005F800F017F8002010BD0000B0
:1007500010B5044607484FF47A710068B0FBF1F019
:1007600000F0ABFD00222146501E00F059F8002099
:1007700010BD000010000020224808B5016841F0BB
:1007800000410160016801F000410091011F0A6809
:1007900042F001020A60096801F00101009101685C
:1007A00041F080510160006800F08050009003200B
:1007B00000F056F8002211466FF00B0000F030F800
:1007C000002211466FF00A0000F02AF800221146BC
:1007D0006FF0090000F024F800221146501F00F0CD
:1007E0001FF800221146101F00F01AF800221146CF
:1007F000901E00F015F80022BDE808401146501E7A
:1008000000F00EB82438024000F01F020121914090
:100810004009800000F1E020C0F80011704700009E
:10082000F0B40E4B1B680C46C3F30223C3F107055B
:10083000042D00D90425191D072901D2002300E049
:10084000DB1E012606FA05F1491E214099409E4013
:10085000761E16403143F0BC01F07CB80CED00E090
:10086000064900F0070208684FF6FF03184040EA07
:100870000220034A10430860704700000CED00E0BE
:100880000000FA052DE9F047DFF8BC8105460E4669
:10089000D8F8000000F00100B04214D2012E05D1BA
:1008A000D8F8001041F00401C8F80010D8F8001082
:1008B00021F001013143C8F80010D8F8000000F021
:1008C0000100B04271D12878604C800705D52068BE
:1008D000A96820F0F000084320602878C00771D094
:1008E0005A4A5A4B69680120083A2C33022910D021
:1008F00003292ED001292FD05FEA402797FAA7FCC1
:10090000BCFA8CFC4CF0200C5FEA5C1C04D0126832
:1009100003E04FF40037F1E71A6897FAA7F3B3FA48
:1009200083F303F01F039840024262D0206820F056
:10093000030008432060FFF7F1FE6968074641F2B3
:100940008830022910D003291CD00129814626D0E5
:1009500034E04FF00077D1E70227CFE7FFF7DEFE64
:10096000C11B494501D926E081462068C0F38100BA
:100970000228F3D126E000BFFFF7D0FEC11B494596
:1009800001D918E081462068C0F381000328F3D123
:1009900018E000BFFFF7C2FEC11B49450BD8206815
:1009A000C0F381000128F5D10CE022E0FFF7B6FE8C
:1009B000C11B494502D90320BDE8F087206810F02B
:1009C0000C0FF3D1D8F80010404601F00101B142FC
:1009D00011D9012E03D1016841F0040101600168C1
:1009E00021F0010131430160006800F00100B042D4
:1009F00001D00120E0E72878400705D52068E968A4
:100A000020F4E060084320602878000706D52068BD
:100A1000296920F4605040EAC100206000F052F8DB
:100A20002168F02292FAA2F201F0F001B2FA82F209
:100A3000D140074A515CC840064908600020FFF7D2
:100A400087FE0020B8E70000003C02400838024062
:100A5000712D000810000020014800687047000058
:100A60001000002008480949006809684FF4E06256
:100A700092FAA2F201F4E061B2FA82F2D140044AA1
:100A8000515CC84070470000100000200838024048
:100A9000812D000808480949006809684FF4605230
:100AA00092FAA2F201F46051B2FA82F2D140044A01
:100AB000515CC84070470000100000200838024018
:100AC000812D00081E4A116801F00C00042813D083
:100AD000082813D00C2813D0101F006800F46041C0
:100AE0004FF4604090FAA0F0B0FA80F0C1404FF4AB
:100AF0000040491C884070471248704712487047B0
:100B00004FF4701393FAA3F301F47010B3FA83F364
:100B1000D8400E4B01F440011268185C4FF44003BA
:100B200093FAA3F3B3FA83F3D940491CD20301D556
:100B3000054A00E0034A5043B0FBF1F07047000063
:100B4000083802400024F40000127A00682D0008E2
:100B50002DE9F84F07460078FB4EFC4DC0074FF0DB
:100B6000010428D0F848083001684FF40038C1F378
:100B70008101022907D00168C1F3810103291BD13A
:100B80000068C00318D598FAA8F0B0FA80F040F0D9
:100B90002000400901D0306800E0286898FAA8F1E8
:100BA000B1FA81F101F01F0104FA01F108425CD0B1
:100BB000786800287BD058E0786801280AD008B10E
:100BC000052811D0306820F480303060306820F47F
:100BD000802002E0306840F480303060786828B3CC
:100BE000FFF79CFD81460BE0306840F480203060C8
:100BF000F0E700BFFFF792FDA0EB0900642872D870
:100C000098FAA8F0B0FA80F040F02000400901D036
:100C1000306800E0286898FAA8F1B1FA81F101F093
:100C20001F0104FA01F10842E4D01EE0FFF776FD4F
:100C3000814605E0FFF772FDA0EB09006428DED8CD
:100C400098FAA8F0B0FA80F040F02000400901D0F6
:100C5000306800E0286898FAA8F1B1FA81F101F053
:100C60001F0104FA01F10842E4D13878DFF8E0828C
:100C700080074FF0000B4FF002095FD5B2480830F3
:100C80000168C1F38101012907D00168C1F3810125
:100C900003291CD10068C00319D499FAA9F0B0FA4D
:100CA00080F040F02000400902D0306801E086E08A
:100CB000286899FAA9F1B1FA81F101F01F0104FA4B
:100CC00001F108422BD0F868012878D127E0F868B4
:100CD000A8B394FAA4F0B0FA80F048F82040FFF7E7
:100CE0001DFD824606E066E1FFF718FDA0EB0A0055
:100CF000022884D899FAA9F1B1FA81F141F02001D2
:100D0000490901D0316800E0296899FAA9F0B0FAE0
:100D100080F000F01F0004FA00F00142E4D08A489D
:100D2000001D01684FF4F85393FAA3F33A69B3FA3C
:100D300083F321F4F8519A401143016025E0FFE765
:100D400094FAA4F1B1FA81F148F821B0FFF7E6FC7A
:100D5000824605E0FFF7E2FCA0EB0A000228C8D8B3
:100D600099FAA9F0B0FA80F040F02000400901D0D3
:100D7000306800E0286899FAA9F1B1FA81F101F030
:100D80001F0104FA01F10842E4D138784FF4007AE7
:100D9000C0067CD56C480830006810F00C0F0FD0EE
:100DA000B9694FF48070002972D090FAA0F0B0FABF
:100DB00080F048F82040FFF7B1FC00907EE087E02B
:100DC0009AFAAAF0B0FA80F040F02000400901D071
:100DD000306800E028689AFAAAF1B1FA81F101F0CE
:100DE0001F0104FA01F1084202D0B86900286FD04F
:100DF0005548396A001D006800F4604081421AD9E4
:100E0000084600F0B9FD002862D14F48001D016876
:100E10003A6A21F460411143016001684FF07F4359
:100E200093FAA3F3FA69B3FA83F321F07F419A406E
:100E30001143016018E04448001D026822F460423A
:100E40000A43026001684FF07F4393FAA3F3FA6903
:100E5000B3FA83F321F07F419A4011430160386A6D
:100E600000F08AFD0028CFD14FF4604191FAA1F142
:100E7000386AB1FA81F1C8404FF40041401C81400A
:100E8000314808300068F02200F0F00001E070E026
:100E900040E092FAA2F2B2FA82F2D0402D4A105CFF
:100EA000C1402D4801600020FFF752FC61E000BF07
:100EB000FFF734FC0099401A02287CD89AFAAAF06D
:100EC000B0FA80F040F02000400902D0306801E024
:100ED000BCE128689AFAAAF1B1FA81F101F01F0188
:100EE00004FA01F10842E3D01748001D01683A6A8C
:100EF00021F460411143016001684FF07F4393FA90
:100F0000A3F3FA69B3FA83F321F07F419A401143C6
:100F100001602EE090FAA0F0B0FA80F048F820B01E
:100F2000FFF7FCFB009005E0FFF7F8FB0099401A83
:100F30000228C2D89AFAAAF0B0FA80F040F0200055
:100F400040090BD030680AE00038024034380240D3
:100F500000004742712D00081000002028689AFA0E
:100F6000AAF1B1FA81F101F01F0104FA01F108427E
:100F7000DAD13878000753D5786948B394FAA4F0E9
:100F8000B0FA80F008EB8000C0F88046FFF7C6FB9F
:100F9000009005E0FFF7C2FB0099401A02288CD8A8
:100FA00099FAA9F0B0FA80F040F04000B4EB501F7D
:100FB00002D1306801E08EE0286899FAA9F1B1FA0F
:100FC00081F101F01F0104FA01F21042E2D027E0A2
:100FD00094FAA4F1B1FA81F108EB8101C1F880B66D
:100FE000FFF79CFB009005E0FFF798FB0099401A83
:100FF000022870D899FAA9F0B0FA80F040F04000C9
:10100000B4EB501F01D1306800E0286899FAA9F1CB
:10101000B1FA81F101F01F0104FA01F21042E3D1AB
:10102000387840077BD59B484FF000090068C00026
:101030000AD49848016841F08051016000684FF07F
:10104000010900F08050009093480168C90511D44F
:10105000016841F480710160FFF760FB009005E0DA
:10106000FFF75CFB0099401A642834D88A4800686E
:10107000C005F5D5B86801280AD008B1052811D0F7
:10108000286820F480702860286820F4806002E0DE
:10109000286840F480702860B86848B3FFF73EFBCA
:1010A00000900DE0286840F480602860F0E700BF01
:1010B000FFF734FB0099411A41F2883081420AD887
:1010C0009AFAAAF0B0FA80F040F04000B4EB501F5A
:1010D00002D1306801E095E028689AFAAAF1B1FAE5
:1010E00081F101F01F0104FA01F21042E0D022E088
:1010F000FFF714FB009007E0FFF710FB0099411A7F
:1011000041F2883081427DD89AFAAAF0B0FA80F094
:1011100040F04000B4EB501F02D1306801E012E013
:1011200028689AFAAAF1B1FA81F101F01F0104FAD4
:1011300001F21042E0D1B9F1000F04D05548016826
:1011400021F080510160786AE8B3DFF84891A9F195
:101150001C09D9F80010C1F38101032976D00228B7
:101160004FF080714FF0007A58460BD091FAA1F100
:10117000B1FA81F148F82100FFF7D0FAB0460746EE
:1011800056466DE04FF0807191FAA1F1B1FA81F10C
:101190008A0042495050FFF7C1FAB346804656468E
:1011A00006E000BFFFF7BAFAA0EB0800022854D807
:1011B00096FAA6F0B0FA80F040F02000400903D083
:1011C000DBF8000001E061E0286896FAA6F1B1FAC8
:1011D00081F101F01F0104FA01F10842E2D1D7E9DF
:1011E0000A103A6BD9F80030014323F47D031A4307
:1011F0001143C9F800104FF0807090FAA0F0B0FAD7
:1012000080F000E029E0810024480C50FFF786FAC6
:10121000074604E0FFF782FAC01B02281DD896FAA1
:10122000A6F0B0FA80F040F02000400902D0DBF8D0
:10123000000000E0286896FAA6F1B1FA81F101F009
:101240001F0104FA01F10842E4D01FE020E000BFD2
:10125000FFF764FAC01B022802D90320BDE8F88F0B
:1012600096FAA6F0B0FA80F040F02000400902D0D3
:10127000D8F8000000E0286896FAA6F1B1FA81F1EA
:1012800001F01F0104FA01F10842E1D10020E5E775
:101290000120E3E72438024000700040000047428C
:1012A0004FF0E0210428086903D020F00400086111
:1012B000704740F00400FAE7704710B5401EB0F1E7
:1012C000807F01D3012010BD4FF0E02460610F2129
:1012D000601700F03FFB0020A06107202061002084
:1012E00010BD10B5FFF7E8FF10BD30B590F8342001
:1012F000012A20D0012280F83420022380F83530E2
:1013000003685C6824F070045C6003685C680D68C6
:101310002C435C6003689C6824F080049C60036834
:101320009C6849680C439C6080F83520002180F857
:101330003410084630BD022030BD10B5040003D083
:1013400094F8350010B107E0012010BD002084F8AA
:101350003400204600F00CF8022084F83500211DEE
:10136000206800F0BFFB012084F83500002010BD8C
:1013700038B504460068B0F1804F15D10B490868B4
:1013800040F0010008600868002200F001000090B1
:1013900011461C20FFF744FA1C20FFF735FA2046BF
:1013A000BDE8384000F004B838BD000024380240E1
:1013B0000168CA6842F00102CA600068016841F031
:1013C000010101600020704770B5044690F83400B8
:1013D000012817D0012584F83450022084F8350004
:1013E0002068826822F0770222F47F4282600868D7
:1013F000502837D00DDC202859D005DC88B31028C0
:1014000041D151E0022070BD302853D040283AD15C
:101410003FE060282ED070280BD0B0F5805F03D05D
:10142000B0F5005F2FD110E02068816821F007013E
:1014300015E0CB68D1E90121206800F089FB216823
:10144000886840F0770088601DE0CB68D1E9012111
:10145000206800F07DFB2068816841F48041816054
:1014600011E01EE0CA684968206800F083FB502143
:10147000206806E0CA684968206800F08CFB60219B
:10148000206800F06FFB84F83550002084F83400A9
:1014900070BDCA684968206800F06CFB4021206874
:1014A000EFE700212068ECE710212068E9E7202120
:1014B0002068E6E730212068E3E7704770B504460E
:1014C000006801694FF00005C943890715D4C16858
:1014D000C943890711D4E91E0161012020752068E4
:1014E00080698007204602D0FFF7E7FF04E000F0A4
:1014F00078F8204600F076F8257520680169C94320
:10150000490717D4C168C943490713D46FF00401D0
:101510000161022020752068806910F4407F204618
:1015200002D0FFF7CAFF04E000F05BF8204600F0AD
:1015300059F8257520680169C943090716D4C1689F
:10154000C943090712D46FF0080101610420207516
:101550002068C0698007204602D0FFF7AEFF04E094
:1015600000F03FF8204600F03DF82575206801693D
:10157000C943C90617D4C168C943C90613D46FF05B
:1015800010010161082020752068C06910F4407FB7
:10159000204602D0FFF791FF04E000F022F8204639
:1015A00000F020F8257520680169C943C90708D1F2
:1015B000C168C943C90704D1891E0161204600F0F2
:1015C00013F820680169C943490609D4C168C943B1
:1015D000490605D46FF040010161204600F03CF857
:1015E00070BD70477047000010B5164C2078B8B138
:1015F00061681548491C6160814202D1134B6278D1
:101600001A60134A91420AD1A178002907D100F04B
:101610004DFD4FF08040016821F00101016010BDD7
:101620000C48FEF769FF0B48006801688907FCD584
:101630000848FEF76DFEB0F59B6FF0D901202070D1
:1016400010BD000000000020A086010004480040FA
:10165000400D030014000020704770B5040004D052
:1016600094F83900002510B106E0012070BD84F81F
:101670003850204600F020F8022084F83900206815
:10168000C16821F40051C160204600F097FA20683B
:10169000016921F4904101612068416921F02A012A
:1016A00041612068C16841F40051C160E5630120D7
:1016B00084F83900002070BD00B50068124987B079
:1016C00088421FD11148016841F4802101600068FF
:1016D000694600F4802005904FF44060009002209D
:1016E00001900120029003200390072004900848F5
:1016F000FEF748FF002211462720FFF791F8272028
:10170000FFF782F807B000BD0048004024380240CF
:101710000004024090F83930012B01D0122B2CD15B
:1017200039B332B390F83830012B26D0012380F83A
:10173000383081628285C2850021C16390F83920EA
:10174000122A18D05FF0220280F8392080F8381071
:101750000168CA6842F48072CA6001684A6942F04E
:1017600001024A610068C16841F02001C1600020A7
:101770007047012070473222E6E702207047FEE7FB
:101780003EB5164814490024C0E900148460C460C2
:10179000046144618461C46101250462C0E90945B2
:1017A0001021C462C0E90D14C463FEF7B5FD18B181
:1017B0004B210BA000F071FB1420CDE90005694618
:1017C00002940648FEF700FD002803D0552104A02E
:1017D00000F063FB3EBD0000002401401400002027
:1017E0002E2E2F5372632F6164632E63000000005E
:1017F000F0B5224887B0016841F02001016001681E
:1018000001F020010591016841F0010101600168CA
:1018100001F001010591016841F0020101600068D9
:10182000174E00F002000590012278213046FEF7A5
:101830006FFF144F012211463846FEF769FF01245D
:101840007820CDE90004032569463046CDE90245FC
:10185000FEF798FE80200090002001900220029068
:1018600069463046FEF78EFE00946946384601947C
:10187000CDE90245FEF786FE07B0F0BD1C380240F8
:10188000000002400004024010B5164886B04FF038
:101890008041016007210024C0E901142721C0E92B
:1018A0000314FFF74AFD18B141210FA000F0F5FA2B
:1018B0004FF48050009069460A48FFF785FD18B143
:1018C000472109A000F0E9FA049404A90548059409
:1018D000FFF70BFD002803D04E2103A000F0DDFA36
:1018E00006B010BD680000202E2E2F5372632F7497
:1018F000696D2E63000000000F4810B50D490160AE
:101900004FF4E1314160002181600C22C160C0E9E7
:1019100004128161C161FFF7A0FE18B15A2107A02E
:1019200000F0BBFABDE81040012208490248FFF769
:10193000F1BE000000480040A00000202E2E2F53D2
:1019400072632F75736172742E63000008000020AB
:10195000FEE770470907090E002806DA00F00F00BD
:1019600000F1E02080F8141D704700F1E02080F8BD
:10197000001470477047000038B51C4900230968FF
:101980001B4A11F0F00F23D118491C310C68E500F7
:10199000184C03D5216801F4C0540EE00D6845F0E1
:1019A00080550D600D6805F08055009524680D6820
:1019B00004F4C05425F080550D60B4F5C05F07D124
:1019C000B0F5404F04D11068012340F004001060CE
:1019D000106820F0010018431060106800F001004A
:1019E000984201D0012038BD002038BD083802409F
:1019F000003C024000700040704710B5FEF794FEB6
:101A0000BDE81040FFF76DBC1E4810B5016892B0EC
:101A100021F4C05141F40061016001200324CDE9AB
:101A2000004003901020049002200990C0030A9007
:101A3000A0040B904FF480000C906846FFF788F8E4
:101A400000B1FEE70F20CDE90D0400200F901090AB
:101A5000119001210DA8FEF715FF00B1FEE7FEF77A
:101A6000FBFF4FF47A71B0FBF1F0FFF726FC042086
:101A7000FFF716FC00221146501EFEF7D1FE12B0F1
:101A800010BD0000007000400F48016841F48071F3
:101A900001600D4908310A680C4B1A400A6002685F
:101AA0000B4B1A400260026822F480220260086830
:101AB00020F47D0008600020091D086005494FF0F2
:101AC0000060086070470000003802400CC0FF88CA
:101AD000FEFFFEEE08ED00E00148FFF7EFBC00005E
:101AE0006800002070B502684FF08046134B144C1C
:101AF000B04203D0984201D0A04205D122F0700537
:101B00004A682A43B0420CD098420AD0A04208D07A
:101B10000C4B984205D00C4B984202D00B4B98428C
:101B200003D122F44073CA681A4302608A68C26211
:101B3000096881620121416170BD0000000400401C
:101B40000008004000080140000C01400010014066
:101B500010B5846842EA032224F47F440A432243F6
:101B6000826010BD826822F070020A4342F00701D1
:101B70008160704710B5036A046A24F001040462AE
:101B8000846924F0F00444EA021423F00A020A43B0
:101B90008461026210BD10B5036A23F01003036272
:101BA0008369046A23F4704343EA023224F0A003F9
:101BB00043EA01118261016210BD00002DE9F0418C
:101BC000044600680169E26821F440511143016153
:101BD0002169A068E26908436169114308432168EB
:101BE000CA6849F20C639A430243CA60206841699B
:101BF000A26921F4407111434161E1696425B1F5A5
:101C0000004F954821684FF032083DD081427AD18B
:101C1000FEF740FF00EBC00101EB00106168890096
:101C2000B0FBF1F6FEF736FF00EBC00101EB001050
:101C300061688900B0FBF1F0B0FBF5F06FF01801BE
:101C4000484306EB800108EB0110B0FBF5F000F013
:101C5000F006FEF71FFF00EBC00101EB001061680A
:101C60008900B0FBF1F0B0FBF5F006EB0016FEF7D3
:101C700011FF00EBC00101EB001061688900B0FBAF
:101C8000F1F7FEF707FFD0E081423DD1FEF702FFFA
:101C900000EBC00101EB001061684900B0FBF1F0FE
:101CA000B0FBF5F00601FEF7F5FE00EBC00101EB1D
:101CB000001061684900B0FBF1F7FEF7EBFE00EBA6
:101CC000C00101EB001061684900B0FBF1F0B0FB0E
:101CD000F5F06FF01801484307EB800108EBC100F5
:101CE000B0FBF5F000F0F80006EB4006FEF7D2FE80
:101CF00000EBC00101EB001061684900B0FBF1F797
:101D0000FEF7C8FE3CE055E0FEF7ACFE00EBC0017C
:101D100001EB001061684900B0FBF1F0B0FBF5F099
:101D20000601FEF79FFE00EBC00101EB00106168A9
:101D30004900B0FBF1F7FEF795FE00EBC00101EBA7
:101D4000001061684900B0FBF1F0B0FBF5F06FF0F6
:101D50001801484307EB800108EBC100B0FBF5F028
:101D600000F0F80006EB4006FEF77CFE00EBC00139
:101D700001EB001061684900B0FBF1F7FEF772FE5D
:101D800000EBC00101EB001061684900B0FBF1F00D
:101D9000B0FBF5F06FF01801484307EB800108EB4A
:101DA000C100B0FBF5F000F0070021683044886006
:101DB000BDE8F081FEF756FE00EBC00101EB00101C
:101DC00061688900B0FBF1F6FEF74CFE00EBC00144
:101DD00001EB001061688900B0FBF1F0B0FBF5F099
:101DE0006FF01801484306EB800108EB0110B0FBCF
:101DF000F5F000F0F006FEF735FE00EBC00101EB58
:101E0000001061688900B0FBF1F0B0FBF5F006EB63
:101E10000016FEF727FE00EBC00101EB0010616821
:101E20008900B0FBF1F7FEF71DFE00EBC00101EBEE
:101E3000001061688900B0FBF1F0B0FBF5F06FF0C5
:101E40001801484307EB800108EB0110B0FBF5F0E7
:101E500000F00F00A9E700000038014010B54FF076
:101E60008040016821F0010101600748006800F02E
:101E70001DF90649012002460870BDE810400449DA
:101E80000448FFF747BC00000400002002000020C7
:101E900008000020A0000020FEE7FEE702E008C8DE
:101EA000121F08C1002AFAD170477047002001E0D4
:101EB00001C1121F002AFBD1704710B5044601F181
:101EC000B00000F077F9102040EA141000F072F929
:101ED00004F00F00BDE8104000F06CB970B5134E6F
:101EE000706920F0400070611148016841F0010103
:101EF0000160002404F1B00000F05CF9002000F063
:101F000059F9102000F056F90025002000F07EF964
:101F10006D1CEDB2962DF8D3641CE4B2082CE9D305
:101F2000706940F04000706170BD00000000024028
:101F300014040240F0B50D4F0546786920F04000CA
:101F400078610024E1B20020FFF7B7FF002628786F
:101F500000F05CF96D1C761C802EF8D3641C082CF4
:101F6000F0D3786940F040007861F0BD0000024095
:101F70002DE9F043DFF8509088461546D9F8141043
:101F8000074621F04001C9F814101048016841F0DB
:101F9000010101600426F9B208F0FF00FFF78DFF90
:101FA0000024287800F032F9641C6D1C102CF8D342
:101FB000761E07F10107EED1D9F8141041F0400167
:101FC000C9F81410BDE8F083000002401404024078
:101FD00010B54FF4C870FEF7CAFAFFF709FC314C90
:101FE000606920F0400060612F48016841F0010104
:101FF0000160AE2000F0DEF8202000F0DBF81020B9
:1020000000F0D8F8B02000F0D5F8C82000F0D2F8E1
:10201000002000F0CFF8102000F0CCF8402000F0B5
:10202000C9F8812000F0C6F8FF2000F0C3F8A12015
:1020300000F0C0F8A62000F0BDF8A82000F0BAF823
:102040003F2000F0B7F8A42000F0B4F8D32000F04F
:10205000B1F8002000F0AEF8D52000F0ABF8F02089
:1020600000F0A8F8D92000F0A5F8222000F0A2F88E
:10207000DA2000F09FF8122000F09CF8DB2000F03E
:1020800099F8202000F096F88D2000F093F81420A5
:1020900000F090F8AF2000F08DF8606940F040004B
:1020A000606110BD00000240140402407CB50021B4
:1020B000009101913B490A2590FBF1F292FBF5F367
:1020C00005FB13228DF8002090FBF1F201FB1202B8
:1020D00042F2107192FBF1F28DF8012090FBF1F2C7
:1020E00001FB12024FF47A7192FBF1F28DF802209B
:1020F00090FBF1F201FB1202642192FBF1F28DF8E8
:10210000032090FBF1F201FB120191FBF5F18DF838
:10211000041090FBF5F105FB11008DF8050000247B
:102120006E46305D0A2811D2DFE800F00509151A65
:102130001F23282D323605EB04111B4A03E01A4AEF
:1021400005EB041140320320FFF712FF641CE4B2D8
:10215000062CE6D37CBD144A05EB04118032F2E76D
:10216000114A05EB0411C032EDE705EB04110F4AEB
:10217000E9E70E4A05EB04114032E4E70B4A05EBB0
:1021800004118032DFE7094A05EB0411C032DAE7B7
:1021900005EB0411064AD6E7054A05EB0411403267
:1021A000D1E70000A0860100E82A0008E82B00081B
:1021B000E82C000814494A6922F020024A614A6961
:1021C00022F040024A6100224B6923F008034B6170
:1021D00003064B6902D543F0100301E023F010031E
:1021E0004B614B6943F008034B6100BF4000521C38
:1021F000D2B2082AE8D3486940F020004861486913
:1022000040F04000486170470000024014494A69AC
:1022100042F020024A614A6922F040024A610022EB
:102220004B6923F008034B6103064B6902D543F069
:10223000100301E023F010034B614B6943F00803E6
:102240004B6100BF4000521CD2B2082AE8D3486953
:1022500040F020004861486940F040004861704704
:102260000000024070B5FFF739FE1348FFF762FE29
:10227000C820FEF77CF900240A258120FFF79AFF89
:10228000C4EB042090FBF5F0C0F1FF00FFF792FFD4
:102290003220FEF76CF9641C0A2CEEDB6420FEF79A
:1022A00066F9FFF71BFE8120FFF784FFBDE8704051
:1022B000FF20FFF77FBF0000E8220008FEF73CFA8E
:1022C000FFF7A2FBFFF794FAFFF716FBFFF758FAA8
:1022D000FFF77EFEFFF7C6FF0248FFF7E7FEFFF7B6
:1022E000D3FAFEE787D612000000000000000000CD
:1022F000000000000040800000000000000000C05E
:1023000000000000000000000000000000000000CD
:102310000000C000400000000000000000000000BD
:10232000000000000000000000008040804000002D
:1023300000000000000000000000000000408000DD
:10234000000000000000C00080000000000000004D
:10235000000000008000C00000000000000040807D
:10236000000000000000000000000000000000006D
:102370004A94228C8186018A444290601C0106099D
:1023800004D2240A040200C0348866824142844296
:10239000A956894285404600EA0A1500000080409F
:1023A00008A64122816201A043A00261822043204D
:1023B00081620946090000C000F014480300804A09
:1023C0008402080600060902C44A0400060000A0B0
:1023D00040B0540802010054499600000001024137
:1023E000902018070001000000000000C000700CE1
:1023F00003004190640902008000D42B9068040916
:102400000200000040146806190018005884700F7C
:10241000100810081008954AA100000000408050E4
:10242000AC400400008050A41906081008081008E9
:10243000080000000001A255280600000000041951
:1024400026008040A01C010A0100000000019061EC
:102450001E00010000804000CF3046A89409820190
:102460000000000000000000000000020100020463
:102470000205020002000601000200010005090237
:10248000000000000000000000000000050204023F
:102490000204020204020102000000050201000021
:1024A00002010205020007000600060204020204FF
:1024B00002000000000609000002040304010205F6
:1024C000020007000600030402000000000A0502E3
:1024D00000040201020100010000000005020102E7
:1024E00000000000000000000000000000000000EC
:1024F000000000000000000000000000000020C0FC
:1025000020C02040200000008000808000000000EB
:10251000000000008000808000000000008000803B
:10252000408000800000000000000000000000006B
:10253000000080008000C00080000000000000005B
:102540000040A040A040A0000000000000000000EB
:10255000000000000000000000000000000000007B
:10256000000000000000000000000000000000006B
:10257000000000000000000000000080708D1209C3
:10258000020000000000000000FF00AA00000000A0
:10259000C010601A0403000000000001010001C027
:1025A000007508170000000000000000004080785F
:1025B0000608020100004194651A000000000000B6
:1025C000008052AD10060100000000000000000075
:1025D00000000000000000000000000000000000FB
:1025E00000000000000000000000000000000000EB
:1025F00000000000000000008030C43A85000000A8
:1026000000000000000000002558866890200E01A0
:10261000020000000040C02048B0448A4043C0018E
:1026200040000000408060000000000054AB548176
:1026300040804090201C0304010000000000C010F6
:10264000E418070000000000000000000000000087
:10265000000000000000000000000000000000007A
:10266000000000000000000000000000000000006A
:10267000000000000000000402050807000A000036
:10268000000000000000000000000000000000004A
:10269000000000000000000000000000000000003A
:1026A000000000000000000000000000000000002A
:1026B00000000000000000000008040007010409F9
:1026C0000200000000000000000000000000000008
:1026D00000000000000000000000000000000000FA
:1026E00000000000000000000000000000000000EA
:1026F00000000000000000000000000000000000DA
:1027000000000000000000000000000000000000C9
:1027100000000000000000000000000000000000B9
:1027200000000000000000000000000000000000A9
:102730000000000000000000000000000000000099
:10274000000000E02020FC0404F4F4F4F404F4F4A9
:10275000F4F404F4F4F4F404F4F4F4F404F4F4F409
:10276000F40404FC00000000000000000000000071
:102770000000000000000000000000000000000059
:102780000000000000000000000000000000000049
:102790000000000000000000000000000000000039
:1027A0000000000000000000000000000000000029
:1027B0000000000000000000000000000000000019
:1027C0000000000704043F20202F2F2F2F202F2F41
:1027D0002F2F202F2F2F2F202F2F2F2F202F2F2F36
:1027E0002F20203F0000000000000000000000003B
:1027F00000000000000000000000000000000000D9
:1028000000000000000000000000000000000000C8
:1028100000000000000000000000000000000000B8
:1028200000000000000000000000000000000000A8
:102AE00000000000000000000000000080C0C0C026
:102AF000C0C0C0800000000000F0FEFF0701000021
:102B00000000030FFFFC0000001FFFFFC0000000DB
:102B1000000000E0FF7F0000000000030307060E36
:102B20000E0607030100000000000000000000C0C6
:102B3000C0C00000000000000000001C0C0603FFE5
:102B4000FFFF00000000000000000000000000FF88
:102B5000FFFF000000000000000000000000000770
:102B6000070700000000000000000080C0C0C0C0D7
:102B7000C0C0C080800000000004070703010000FF
:102B80000000C1FFFF1E000000000080C0E07038A0
:102B90001E0F0301000000000000070707070606DC
:102BA00006060606060600000000000080C0C0C041
:102BB000C0C0C080800000000000060F03018080BC
:102BC00080C0C17F7F1E00000040C0E08000010186
:102BD000010303DFFEFC0000000001030707060EEF
:102BE0000E060703030000000000000000000000C4
:102BF0000080C0C00000000000000000C0E0703C89
:102C00001E07FFFF0000000070787E7F73717070F8
:102C10007070FFFF70707000000000000000000086
:102C20000000070700000000000000C0C0C0C0C0D6
:102C3000C0C0C0C0C00000000080F8FFCF6060606E
:102C400060E0C0C08000000000C1E1810000000021
:102C5000000001E7FFFE000000010307060E0E0E54
:102C60000E07070301000000000000000000000044
:102C7000C0C0C00000000000000000C0F0F8FECF9F
:102C8000C7C1C0C080000000007CFFFF83010000BE
:102C900000000001FFFFFE00000001030707060E11
:102CA0000E0E06070301000000C0C0C0C0C0C0C0B7
:102CB000C0C0C0C0C0C0C0000000000000000000D4
:102CC00080E0F83E0F030100000000000080F0FEED
:102CD0003F0700000000000000000000040707019B
:102CE000000000000000000000000080C0C0C0C064
:102CF000C0C0C0800000000000007F7FE1C0808075
:102D000080C0E17F7F1E000000FCFECF07030101B1
:102D10000103038FFEFC00000001030707060E0EEF
:102D20000E0607070301000000000080C0C0C0C0FD
:102D3000C0C0C0800000000000FEFF87010100004D
:102D4000000183FFFF7E000000010307070686E6FF
:102D5000FE7F1F070300000000000000080E0F03A5
:102D60000100000000000000030406080C101820F9
:102D70003000000000000000000102030406070804
:102D8000090000000001020304000000AC2D00084F
:102D900000000020140000009C1E0008C02D000848
:102DA00014000020CC040000AC1E000800690000E4
:102DB00000000000000000000000000068FF1F008D
:04000005080000F5FA
:00000001FF
